:020000040800F2
:10000000080800209D020008ED260008CD25000804
:10001000E92600089D0D0008C92C0008000000001A
:10002000000000000000000000000000F5260008AD
:10003000B90D000800000000F1260008F9260008AC
:10004000B7020008B7020008B7020008B7020008AC
:10005000B7020008B7020008B7020008B70200089C
:10006000B7020008B7020008B7020008B70200088C
:10007000A10D0008B7020008B7020008B702000887
:10008000B7020008B7020008B7020008B70200086C
:10009000B7020008B7020008B7020008B70200085C
:1000A000B7020008B7020008B7020008B70200084C
:1000B000B7020008B7020008B7020008B70200083C
:1000C000B7020008B7020008B7020008B70200082C
:1000D000B7020008B12C0008B7020008BD2C0008C8
:1000E000B7020008B7020008B7020008B70200080C
:1000F000B7020008B7020008B7020008B7020008FC
:10010000B7020008B7020008B7020008B7020008EB
:10011000B7020008B7020008B7020008B7020008DB
:10012000B7020008B7020008B7020008B7020008CB
:10013000B7020008B7020008B7020008B7020008BB
:10014000B7020008B7020008B7020008B7020008AB
:10015000B7020008B7020008AD0D0008B70200089A
:10016000B7020008B7020008B7020008B70200088B
:10017000B7020008B7020008B7020008000000003C
:10018000B7020008B7020008B7020008B70200086B
:10019000B7020008B7020008B7020008B70200085B
:1001A0000000000000000000B702000800F002F8A4
:1001B00000F064F814A696E8000CB244B344DA45A3
:1001C00001D100F05BF8BAE80F000FA696E8300006
:1001D000A5EB040504EB0607AAEB0704A7F101074A
:1001E0004FEA15154FEA3414A4F10104AC4201D3CF
:1001F00000F044F813F0010F18BFFB1A43F001039D
:1002000000F001F8DBE71847903C0000B03C00002C
:10021000103A24BF78C878C1FAD8520724BF30C832
:1002200030C144BF04680C60704700007047000094
:100230000023002400250026103A28BF78C1FBD8EF
:10024000520728BF30C148BF0B607047662903F0D2
:100250001B85732900F02A84002070471FB503F026
:1002600006FD00F027FC04000020002103F072FCD2
:10027000E06000F0C5F91FBD10B510BD00F01AFD1B
:100280001146FFF7EBFF02F0F7FF00F038FD03B473
:10029000FFF7F2FF03BC00F079FD0000094880473A
:1002A00009480047FEE7FEE7FEE7FEE7FEE7FEE758
:1002B000FEE7FEE7FEE7FEE704480549054A064B70
:1002C00070470000FD260008AD010008080200206C
:1002D00008080020080400200804002053EA020C4B
:1002E00000F069802DE9F04B4FF00006002B1FBF96
:1002F000B3FA83F503FA05F424FA05F65E4012BF5B
:100300001643B2FA82F502FA05F4C5F120051EBFC4
:1003100022FA05FC44EA0C04203556EA044C4FEA64
:10032000144418BF641C4FF000084FF000099042BD
:1003300071EB030C39D3002919BFB1FA81F701FA27
:1003400007F6B0FA80F700FA07F6C7F120071EBFDC
:1003500020FA07FC46EA0C062037B6FBF4FCA7EBB4
:100360000507103F07F01F0BCBF120062CFA06F60D
:100370000CFA0BFB44BFB3460026202FA4BF5E46F9
:100380004FF0000B5BEA060C08BF4FF0010B19EBB6
:100390000B0948EB0608ABFB027C06FB02CC0BFB0F
:1003A00003CCC01B71EB0C01C1E70B460246414672
:1003B0004846BDE8F08B13B5084318BF4FF0FF3037
:1003C0000146AFF30080BDE81C4070470FB41CB578
:1003D0000C0007AA009007D04142A14202D320445A
:1003E000401E01E04FF0FF30074B7B44694601900F
:1003F000069800F02EFB0020002C01D00099087018
:100400001CBC5DF814FB00008B06000070B50C46A8
:100410000546012A05D02878800600D5EA69002320
:1004200002E0012305E05B1C934202D2E05C00285D
:10043000F9D1A869E618C01AA861286A1844286288
:100440002846AFF3008004E0D5E9012114F8010B40
:100450009047B442F8D32846AFF3008070BD2DE931
:10046000F0474FF0000A89460446C0F820A0204615
:10047000E1688847002876D0252806D0D4E90121F4
:100480009047206A401C2062F1E7E1682046002581
:100490008847C4F81CA006460027C4F818A02A2ED6
:1004A00009D0304603F04EFB38B304EB8708303EEA
:1004B000C8F8186019E059F8041B204604EB8702BD
:1004C0009161E1688847012F064618D1E06900284C
:1004D00020DA25F020051DE0D8F8180000EB800098
:1004E00006EB40003038C8F818002046E16888471D
:1004F000064603F027FB0028EED1012F0AD02E2E4E
:1005000008D12046E16888477F1C0646022F45F047
:100510002005C4DBA069002803DA404245F001054C
:10052000A061E80701D025F01005B6B1A6F14100A1
:10053000192802D8203645F400654A46314620463F
:1005400025604D46FFF782FE58B1012806D0ED1D0B
:1005500025F0070000F1080989E704E005F1040926
:1005600085E730468AE7206ABDE8F08710B5431C6E
:1005700002E010F8011B71B18107FAD14FF001328E
:1005800002C88C1A8C4314EAC211F9D0C01A0A06A8
:1005900003D0C01E10BDC01A10BD0A0401D0801EB9
:1005A00010BD0902FCD0401E10BD4FF0000200B586
:1005B000134694469646203922BFA0E80C50A0E886
:1005C0000C50B1F12001BFF4F7AF090728BFA0E834
:1005D0000C5048BF0CC05DF804EB890028BF40F800
:1005E000042B08BF704748BF20F8022B11F0804F42
:1005F00018BF00F8012B7047704770477047000024
:1006000008487CB57844009007487844009C05462B
:10061000019004E02046016808448047241DAC4254
:10062000F8D17CBDCC380000CA3800002DE9FF4F5E
:100630000C461E464FF0FF378BB0D2E90001DDF8C3
:1006400060800A908A46C1F30A5505B93D460021EB
:1006500008464FF00000BAF1000F00F4400005DA40
:1006600000EB80004FF4400101EA50004FEA90593E
:10067000B9F1010F00DDB9460A9850EA4A000ED0E0
:1006800044F61050A5F2FF3545432F14B8F1000F82
:100690001ED07542291E1EDDC9F100021CE0B8F112
:1006A000010F4FF0000001D0302103E0F24305E0DC
:1006B0002154401CB042FBDB304600220021215473
:1006C0000B99C1F80880C1E900200FB0BDE8F08F98
:1006D000BD1B6D1CDEE74A4600DA694206A800F041
:1006E00073FA06AB93E8070003AB83E807005046B4
:1006F0000A9902F046FE8DE80700A0F500501F3869
:1007000000900398002D0ADD42F21F014A4608447A
:10071000002303A90390684603F0B0F809E0A0F5B0
:1007200000504A461F38002303A90390684603F08F
:10073000BAF88DE807000004000C03D04FF0FF303A
:10074000410800E01046B8F1000F03D000220092EB
:1007500015461EE0751E05D400F0B0F93032625522
:100760006D1EF9D5B3460122084302D000227F1C3A
:1007700004E02078302801D100227F1E002A09974A
:1007800084D01DE0112D07DA00F098F9303262555F
:100790006D1C50EA0102F5D1084302D00098C8B19F
:1007A0000EE00021681E05E0235C625C6354225465
:1007B000401E491C8142F7DBAB46A81B401E099036
:1007C000002004F80B000B98099AC0F80880C0E9D3
:1007D000002B7AE711264FF0000857E72DE9F04F7C
:1007E00088460446D21D22F0070191B0D1E90001EC
:1007F000CDE90A0103F08EF902460B98C00F01D033
:100800002D2007E02068810701D52B2002E0202160
:1008100001EAC000032A099001D0072A05DB03463C
:100820004146204600F090F90BE12078800601D582
:10083000E06900E00620B8F1650F814606D0B8F106
:10084000660F18D0B8F1670F70D131E00020B9F110
:10085000110F009001DB112301E009F101030AAA45
:1008600001A90CA8FFF7E2FEDDE90C70002609F1F2
:100870000105834647E001204B4600904FF00047BA
:100880000AAA01A90CA8FFF7D1FEDDE90DB00C9969
:100890005D46002610B909F101000D18B9EB0500FD
:1008A00003D4C0F1FF3609F10105A5EB09002BE0E7
:1008B000B9F1010F01DA4FF001090020B9F1110F70
:1008C0000090484601DD112300E003460AAA01A971
:1008D0000CA8FFF7ABFEDDE90C704D460026834601
:1008E000207800070AD4AB4500DA5D4601A8012D47
:1008F00004DD411911F8011C302907D04F4502DAF7
:1009000017F1040F04DA012082460FE06D1EEEE7B6
:10091000002F02DCED1B3E4403E0781CA84200DD02
:100920007D1CB81B00F1010A4FF00047207800073A
:1009300003D4AA4501DB4FF0FF3A0021B7F1004F85
:100940000DF143088DF8431024D002202B23002FF3
:1009500001DA7F422D230A21021EA0F1010000DCF2
:100960005FB197FBF1FC97FBF1F201FB1C7C174692
:100970000CF1300C08F801CDEEE7A8F1010003708E
:100980002188090501D5452100E06521A0F1010874
:1009900000F8011C09980FA9A1EB0807FF1D00B181
:1009A0000120411901EBEA70A1693844081A401E80
:1009B000A0612078C00602D42046AFF300800998D9
:1009C00028B1D4E901219047206A401C2062207898
:1009D000C00622D52046AFF300801EE0002E04DBC7
:1009E000B34502DD01A8805D00E03020D4E901219B
:1009F0009047206A401C2062761CAAF101005FEA41
:100A0000000A0AD100F056F8C0680168405CD4E9D9
:100A100001219047206A401C2062281EA5F1010593
:100A2000DCDC07E0D4E9012118F8010B9047206ACB
:100A3000401C2062381EA7F10107F3DC2046AFF30B
:100A40000080032011B041E601694A1C0261087868
:100A5000704700B58FB0CDE90131002105910549FE
:100A60007944CDE9031011466846FFF7F8FC0FB052
:100A700000BD0000E5FFFFFFD1E900239A4202D24A
:100A8000531C0B601070704710B5436913B1AFF37E
:100A9000008001E0FFF7BAFC012010BD127800F1E0
:100AA00024010A7000224A700122EDE711684FF01C
:100AB000FF32E9E7004870473000002030B5B0F160
:100AC0000A0271F100034FEA900E4EEA817EB0EB0C
:100AD0000E0061EB91014FEA101E4EEA017E10EB11
:100AE0000E0041EB11114FEA102E4EEA016E10EB91
:100AF0000E0041EB11214FEA104E4EEA014E10EB71
:100B00000E0041EB1141401841F100014FEAD000C5
:100B100040EA41704FEAD1014FEA810444EA9074FF
:100B200010EB800544EB01046D1944EB0404521BE7
:100B3000A3414FF0000348BF0A3200D530BD401C2E
:100B400041F1000130BD00002DE9F0411F4604468F
:100B500003260168072A01F4006004DB08B116A52A
:100B600005E016A503E008B115A500E015A521F0E4
:100B700010002060A069C01EA0610FB1401EA061DE
:100B80002046AFF300804FB1D4E9012138469047A9
:100B9000206A401C2062C01C206206E0206AFAE73E
:100BA000D4E9012115F8010B9047761EF8D22046B2
:100BB000AFF30080BDE8F0814E414E006E616E00E3
:100BC000494E4600696E66002DE9F047814616469B
:100BD0008AB0354878440DC88DE80D003248784415
:100BE000801C03AC0DC884E80D0041F69B3008441E
:100BF000372190FBF1F290FBF1F5A5F1800501FBA7
:100C000012041B3C02D56442012000E00020DFF802
:100C100098A080460027FA44AAF1BE0A0EE0E00739
:100C20000AD03246684607EB470101230AEB8101EF
:100C300002F039FE8DE8070064107F1C002CEED115
:100C4000194F7F44AE3F19E0E80715D007EB0410B9
:100C50000DF1180A90E80E008AE80E00C068F04214
:100C600001D1981908903246012306A903A802F081
:100C70001AFE03AB83E807006D10641C002DE3D15E
:100C80004FF0010332466946B8F1000F03A802D0C5
:100C900002F0F4FD01E002F006FEC9E90001C9F826
:100CA00008200AB0BDE8F0873031000000487047E6
:100CB000100000207546FFF7F9FFAE4605006946B3
:100CC000534620F00700854618B020B5FFF7F4FA28
:100CD000BDE820404FF000064FF000074FF000083D
:100CE0004FF0000BAC46ACE8C009ACE8C009ACE87A
:100CF000C009ACE8C00921F007018D46704710B566
:100D00000446AFF300802046BDE81040FFF7BFBAAD
:100D100030B44FF0013C50F8042B51F8043BCCFAAE
:100D200052F4D51A20D1FCB950F8042B51F8043BE9
:100D3000CCFA52F4D51A17D1B4B950F8042B51F8A3
:100D4000043BCCFA52F4D51A0ED16CB950F8042BEE
:100D500051F8043BCCFA52F4D51A05D1002CDAD064
:100D600030BC4FF00000704729BAB1FA81F111F0A0
:100D70001801D1F120008440F2D1CA40CB4012F0DA
:100D8000FF0213F0FF0330BCD01A7047014918204E
:100D9000ABBEFEE72600020070470000FEE7000041
:100DA00040F21010C2F2000000F064B840F2B0004F
:100DB000C2F2000000F05EB87047000072B600009A
:100DC00070B5866D044600F00BFB94F835100229CF
:100DD00028D105462068216C026822F016020260C4
:100DE000426922F08002426109B9A16C19B101681F
:100DF00021F008010160016821F00101016000BFDC
:100E000020680068C00715D000F0EAFA401B0628E9
:100E1000F6D320206065032084F83500002184F893
:100E2000341070BD802060650120002184F83410EA
:100E300070BD00BFE06D3F2101FA00F0B0600120FD
:100E400084F835000020002184F8341070BD0000C3
:100E500090F83510022909D1052180F83510006875
:100E6000016821F001010160002070478021416587
:100E700001207047F0B581B00021009140F20801D7
:100E8000C2F200010B68D0E9166148F2B515376867
:100E90000822C1F64E358A403A42A3FB05350CD0F4
:100EA00003681C68640708D51C6824F004041C60EF
:100EB000B260426D42F00102426501228A403A422C
:100EC00008D003685B691B0604D5B260426D42F02E
:100ED0000202426504228A403A4208D003681B6835
:100EE0009B0704D5B260426D42F0040242651022B5
:100EF0008A403A4219D001680B681B0715D5B260C9
:100F00000B680A685B0309D4D20509D40A6822F089
:100F100008020A60016C29B907E000BF110341D43F
:100F2000016C11B1044688472046C26D202101FAA8
:100F300002F33B4243D001680F68FF063FD5B36020
:100F400090F835700B68052F1CD123F016030B6049
:100F50004B6923F080034B61036C0BB9836C1BB1AD
:100F60000B6823F008030B603F219140B160012121
:100F700080F83510016D0022002980F8342054D10A
:100F800058E000BF0A685B0310D4D20512D40A6887
:100F900022F010020A60012180F83510002180F84B
:100FA000341007E0816C0029BCD1BEE7110301D4E5
:100FB000416C00E0C16B11B1044688472046416D89
:100FC000C1B3416DC9072ED0052180F835100168E5
:100FD000AA0A0B6823F001030B60009B01339342C4
:100FE00000931AD80B68DB0717D0009B013393429C
:100FF000009312D80B68DB070FD0009B013393429C
:1010000000930AD80B68DB0707D0009B013393429B
:10101000009302D80B68DB07DFD1012180F835107F
:10102000002180F83410C16C21B101B0BDE8F0405E
:10103000084700BF01B0F0BD2DE9F041044600F0C3
:10104000CFF9ECB10546022084F835000020216874
:1010500084F83400086820F00100086021680868FE
:10106000C00711D000F0BCF9401B0528F6D90325B4
:1010700020230320636584F83550BDE8F08100BF6C
:101080000120BDE8F08100BF086848F23F02CFF2BE
:101090001002D4E9013500EA020C04F10C0898E8CA
:1010A000C10143EA0C032B431843D4E9072E304314
:1010B00038431043626A40EA0E00042A40EA0803FB
:1010C0001CD1206BD4E90A2E40EA0E0018430860B8
:1010D0004869BEF1000F20F0030040EA020040F032
:1010E000040C11D0B8F5005F36D0B8F1000F45D12F
:1010F000022A46D0012A3BD032B942E00B6048694F
:1011000020F0070040EA020C01F0F8004AF6AB229A
:101110001038CAF6AA22A0FB02231A0943F6385354
:10112000C1F814C0C0F600039A5C40F2FF335F2898
:101130004FF03F0021EA030100FA02F088BF0431BA
:10114000C4E916128860002301250020636584F835
:101150003550BDE8F08100BF032AD5D801254023D2
:101160000120DFE802F0030E030500BF82E700BFA5
:10117000AEF1C070B0FA80F0400904E0032A04D355
:10118000C2D1CEF300600028BED00125402301204B
:10119000636584F83550BDE8F081000090F834C0F4
:1011A000BCF1010F04BF0220704770B54FF0010C75
:1011B00080F834C0D0F858E090F835C0BCF1010F89
:1011C00038D14FF0020C80F835C04FF0000CC0F859
:1011D00054C0D0F800C08468056CC06DDCF80060B5
:1011E000402C26F48026CCF80060CCF804300B4666
:1011F00004BF13460A463F2101FA00F0CCF808303C
:10120000CCF80C20CEF80800DCF8000040F0160006
:10121000CCF800002DB1DCF8000040F00800CCF85C
:101220000000DCF8000040F00100CCF800000020D5
:1012300070BD00BF002180F83410022070BD000096
:101240002DE9F04F83B000F1200200F13E4742F259
:101250000045009207F1FF77C4F202050A224FEA27
:10126000B726A84208BF092200254FF000084FF01A
:101270000009092E38BF4FEAB72201920AE000BFE9
:1012800009F1010908F10208B9F1100F05F104058F
:1012900000F0A2800F68012202FA09FE17EA0E0A86
:1012A000EED0D1F804C003220CF003077E1E02FA30
:1012B00008F4012E6FEA040B12D88468CE6804EAA1
:1012C0000B0406FA08F634438460446824EA0E06E8
:1012D000CCF3001404FA09F42643466004E000BF8E
:1012E000032F01D103271EE0C6688C6806EA0B06AF
:1012F00004FA08F42643022FC66014D16FF00302EB
:10130000009E02EA590756F807C005F01C040F2298
:101310000B69A2402CEA0202A3401A43F251D1F811
:1013200004C00CF00307026807FA08F302EA0B0294
:101330001A431CF4403F0260A2D0002243F644034B
:101340000292C4F202031A6843F6004442F4804257
:101350001A601A68C4F2010402F480420292029AEE
:1013600029F003024FF6084C2244CFF6FF7C52F8D6
:101370000C3005F00C070F26BE40B343019E06FA61
:1013800007F73B4342F80C30A2684B6842EA0A0771
:1013900043F60C4CDE0258BF22EA0A07A760C4F2EB
:1013A000010CDCF800209E0242EA0A0758BF22EA3C
:1013B0000A07CCF8007062689E0342EA0A0758BF29
:1013C00022EA0A0767602268DB0342EA0A0758BF7D
:1013D00022EA0A07276053E703B0BDE8F08F000058
:1013E00040F20020C2F200000068704740F20000A6
:1013F00040F20021C2F20000C2F2000100780A6847
:10140000104408607047000080B543F60040C4F205
:101410000200016841F400710160016841F48061DB
:101420000160016841F480710160032000F086F8DA
:101430000F2000F005F800F027F8002080BD000024
:1014400070B540F20006C2F2000640F208013278A0
:10145000C2F200014FF47A730968B3FBF2F204465A
:10146000B1FBF2F1084600F05FFB0F2C4FF00105D5
:1014700008D838B94FF0FF3021460022002500F08F
:1014800031F87460284670BD82B0002043F64001F8
:101490000190C4F202014A6842F480424A604A68FC
:1014A00002F480420192019A0090086840F0805056
:1014B0000860086800F080500090009802B0704703
:1014C000002848BF704700F01F01012202FA01F115
:1014D0001C2202EAD0004EF20012CEF2000281502D
:1014E0007047000010B54EF60C5CCEF2000CDCF834
:1014F0000030C3F3022E8EF00704042C28BF04240E
:10150000BEF103034FF0FF3E0EFA04F438BF002390
:10151000A14399400EFA03F39A43114300F00F02DE
:1015200000F160430901043A03F564436244002872
:1015300048BF02F10C03197010BD00004EF60C51AB
:10154000CEF200010A684FF6FF031A4060F30A2248
:1015500042F0806040F0FD7008607047002804BFD2
:10156000012070472DE9F04143F60808C4F2020853
:101570000446D8F8F8030D4600F00F00884207D261
:1015800088F8F853D8F8F80300F00F00A84277D194
:101590002068810717D5410705D5D8F8001041F418
:1015A000E051C8F80010010705D5D8F8001041F443
:1015B0006041C8F80010D8F80010A26821F0F001CE
:1015C0001143C8F80010C00740D1D8F8F80300F064
:1015D0000F00A84207D988F8F853D8F8F80300F0AC
:1015E0000F00A8424CD12068410707D5D8F8001059
:1015F000E26821F4E0511143C8F80010000708D553
:10160000D8F80000216920F4604040EAC100C8F821
:10161000000000F07DF8D8F8001043F62052C1F326
:101620000311C0F60002515C40F2080220FA01F1F9
:1016300040F20400C2F200000068C2F20002116031
:10164000FFF7FEFE0020BDE8F08100BF6068811E4C
:10165000022907D258F8081C89015CBF0120BDE8A7
:10166000F08111E0012807D158F8081C89035CBFFC
:101670000120BDE8F08107E058F8081C890703D471
:101680000120BDE8F08100BFD8F8001021F003016F
:101690000843C8F80000FFF7A3FE064641F288376A
:1016A000D8F80000616800F00C00B0EB810F8CD01E
:1016B000FFF796FE801BB842F2D90320BDE8F08107
:1016C00040F2080043F60801C2F20000C4F2020131
:1016D0000068096843F63052C1F38221C0F6000267
:1016E000515CC8407047000040F2080043F6080112
:1016F000C2F20000C4F202010068096843F63052E9
:10170000C1F34231C0F60002515CC840704700008E
:1017100010B543F60404C4F20204606800F00C0043
:1017200008280BD0042819BF42F20040C0F2F40090
:1017300047F64000C0F27D1010BD00BF2068216850
:101740002368490247F64001C0F27D1100F03F02D4
:10175000C3F388105CBF42F20041C0F2F401A1FB68
:1017600000010023FEF7BAFD21680222C1F3014106
:1017700002EB4101B0FBF1F010BD0000002804BFF6
:10178000012070472DE9F04182B00446007843F60D
:101790000006C007C4F202060CD0B06800F00C00CE
:1017A000042840F081803068800303D560680028F9
:1017B00000F06881207880071BD5B06810F00C0F0E
:1017C00009D0B06800F00C00082840F087807068ED
:1017D000400200F183803068800703D5E06801286B
:1017E00040F050813068216920F0F80040EAC100E3
:1017F00030602078000713D4207840072AD4A569E8
:10180000002D00F03A81B06800F00C00082840F08C
:10181000A580012D40F00E81012002B0BDE8F081CD
:101820006069002800F082800020C4F24720012176
:10183000C0F8801EFFF7D4FD054600BF706F80071B
:10184000DAD4FFF7CDFD401B0228F7D9032002B000
:10185000BDE8F081306C5FEAC0080AD40020019036
:10186000306C40F080503064306C00F0805001905B
:10187000019847F20007C4F200073868C00547D452
:10188000386840F480703860FFF7AAFD054600BF55
:101890003868C0053CD4FFF7A3FD401B0228F7D9E8
:1018A000032002B0BDE8F081B06800F00C00082809
:1018B00003D1706840023FF576AF61683068B1F5DA
:1018C000803F07D0B1F5A02F40F09A8040F48020EF
:1018D0003060306840F4803030609AE0E068002882
:1018E00040F20000C4F247205CD001210160FFF704
:1018F00077FD0546306880073FF574AFFFF770FD50
:10190000401B0228F6D9032002B0BDE8F08100BFD9
:10191000A168306F012905D0052955D140F0040098
:101920003067306F40F00100306756E00020C4F2AD
:1019300047200021C0F8801EFFF752FD054600BF7A
:10194000706F80077FF558AFFFF74AFD401B0228F4
:10195000F6D9032002B0BDE8F08100BF0027C4F231
:10196000472700203866FFF73BFD022D05460DD1C5
:101970003068800140F18A80FFF732FD401B022869
:101980004FF00300F4D902B0BDE8F0813068800167
:1019900073D5FFF725FD401B02284FF00300F5D952
:1019A000F1E700BF00210160FFF71AFD054600BF07
:1019B000306880077FF51DAFFFF712FD401B02283E
:1019C0004FF00300F4D9DEE720F001003067306FFC
:1019D000002920F0040030677AD0FFF701FD0546AA
:1019E00041F28837306F800700F18480FFF7F8FC00
:1019F000401BB842F6D9032002B0BDE8F08100BF19
:101A000020F4803030603068002920F4802030607D
:101A10007AD0FFF7E5FC0546306880033FF5CAAE93
:101A2000FFF7DEFC401B6428F6D9032002B0BDE8B6
:101A3000F08100BF7068E16900F480028A4221D120
:101A4000216A00F03F028A421CD147F6C071626AE7
:101A50000140B1EB821F15D1A16A4FF6FF73C90394
:101A6000994300F44032A1F580318A420AD1E16AFB
:101A700000F07060B0EB016F04D1002002B0BDE84F
:101A8000F08100BF012002B0BDE8F08104F11C0527
:101A90002FCD084340EA8210D9034FF6FF729143DD
:101AA000A1F5803140EA0560084370600120386686
:101AB000FFF796FC044600BF30688001DDD4FFF7D5
:101AC0008FFC001B02284FF00300F5D95BE700BF35
:101AD000FFF786FC054641F2883700BF306F80076C
:101AE00008D5FFF77DFC401BB8424FF00300F5D945
:101AF00049E700BFB8F1000F3FF581AE306C20F030
:101B0000805030647BE600BFFFF76AFC054600BFEB
:101B1000306880037FF54EAEFFF762FC401B6428FF
:101B20004FF00300F4D92EE7411E0020B0EB116FF7
:101B30001CBF012070474EF21002CEF2000251602D
:101B40004EF62351CEF20001F0230B700721906076
:101B50001160704790F84230202B0BD194460A4612
:101B600000294FF0010118BFBCF1000F06D1084653
:101B7000704700BF02210846704700BFB0B582B071
:101B8000012101630025222145638262A0F82CC057
:101B9000456480F84210C36B42F6990E42F6F91480
:101BA000C0F6000EC0F600040168C3E90FE442F27B
:101BB0001D74C0F60004C3E91345043104461846F9
:101BC0006346FFF7EBFA0195216820460A68019207
:101BD000496801910199216931B300BF016851E859
:101BE000031F026841F4807142E80313E3B1016806
:101BF00051E8031F026841F4807142E803139BB16E
:101C0000016851E8031F026841F4807142E8031340
:101C100053B1016851E8031F026841F4807142E842
:101C20000313002BDAD100BF016851E8051F0268D9
:101C300041F0010142E80513BBB3016851E8051FFB
:101C4000026841F0010142E8051373B3016851E8ED
:101C5000051F026841F0010142E805132BB301683A
:101C600051E8051F026841F0010142E80513002B0D
:101C7000DAD11AE0016851E8051F026841F040011D
:101C800042E80513DBB1016851E8051F026841F025
:101C9000400142E8051393B1016851E8051F02684D
:101CA00041F0400142E805134BB1016851E8051FBE
:101CB000026841F0400142E80513002BDAD1016BC4
:101CC000012933D10021009101680A680092496816
:101CD00000910099016851E8031F026841F010016A
:101CE00042E80313DBB1016851E8031F026841F0C9
:101CF000100142E8031393B1016851E8031F026821
:101D000041F0100142E803134BB1016851E8031F91
:101D1000026841F0100142E80313002BDAD10021E0
:101D200002B0BDE8B0400846704700BF012102B0D4
:101D3000BDE8B04008467047026844F60003C4F2AC
:101D400000039A4218BF70472DE9F041C06B8846E6
:101D5000FFF736F8B8F1000F1BD040F2700740F2E1
:101D600074050026C2F20007C2F200053888122866
:101D700024BF12383880284600F0FCFF845D2846D6
:101D800001F062FA398801364A1CB0453A80445461
:101D9000ECD140F27400C2F2000000F0EBFF01460B
:101DA00040F2B810C2F200000422BDE8F041FFF793
:101DB000D1BE000070470000B0B582B001680A686B
:101DC000CC684B6902F02F05202D04F0200505D1C9
:101DD00025B102B0BDE8B04000F076BE5FEA027CFB
:101DE0001EBF03F0010E04F4907313EB0E0341D1F8
:101DF000036BD50618D5012B16D114F0100313D0A0
:101E0000002201920A6801924A680192019A496986
:101E100049064BD4818DC28DC38D002B18BF9142D2
:101E200040F0F48102B0B0BD13062DD514F080034C
:101E30002AD090F84120212AF4D18268B2F5805F3F
:101E400003D10269002A00F06782026A531C036210
:101E500012784A60C28C013A1304C284E2D1C86885
:101E600020F08000C860C86840F04000C86002B040
:101E7000B0BD00BFD30718BF14F4807340F0D0800A
:101E8000530700F1D380D8E05206CBD514F04002BE
:101E9000C8D0CA6822F04002CA60202180F84110F0
:101EA00002B0BDE8B04000F08DBB00BFC16B0A6856
:101EB000526893B2002BB5D0858DAB42B2D2C285A9
:101EC000C969B1F5807F00F0A080016851E8031F67
:101ED000026821F4807142E80313DBB1016851E824
:101EE000031F026821F4807142E8031393B1016873
:101EF00051E8031F026821F4807142E803134BB1DB
:101F0000016851E8031F026821F4807142E803135D
:101F1000002BDAD1016851E8051F026821F00101A8
:101F200042E80513BBB3016851E8051F026821F0C0
:101F3000010142E8051373B3016851E8051F026807
:101F400021F0010142E805132BB3016851E8051F98
:101F5000026821F0010142E80513002BDAD11AE0F2
:101F6000016851E8051F026821F0400142E80513AD
:101F7000DBB1016851E8051F026821F0400142E829
:101F8000051393B1016851E8051F026821F0400173
:101F900042E805134BB1016851E8051F026821F0C2
:101FA000400142E80513002BDAD1202180F84210CD
:101FB00000210163016851E8031F026821F010014C
:101FC00042E80313DBB1016851E8031F026821F006
:101FD000100142E8031393B1016851E8031F02683E
:101FE00021F0100142E803134BB1016851E8031FCF
:101FF000026821F0100142E80313002BDAD1C16B13
:1020000004460846FEF7DCFE204602214163818D2E
:10201000C28D891A89B202B0BDE8B040FFF78CBE0C
:10202000436C43F001034364530706D5BEF1000F30
:1020300003D0436C43F002034364930706D5BEF11B
:10204000000F03D0436C43F004034364BCF1000F62
:1020500006D55EEA050303D0436C43F008034364EE
:10206000436C002B3FF4DEAE920605D525B1044645
:1020700000F02AFD216820464969426C01F04001C8
:1020800002F00802891800F0B98000BF016851E829
:10209000031F026821F4907142E80313BBB3016887
:1020A00051E8031F026821F4907142E8031373B3EF
:1020B000016851E8031F026821F4907142E803139C
:1020C0002BB3016851E8031F026821F4907142E8C4
:1020D0000313002BDAD11AE0016851E8051F0268EA
:1020E00021F0010142E80513DBB1016851E8051F49
:1020F000026821F0010142E8051393B1016851E83B
:10210000051F026821F0010142E805134BB1016887
:1021100051E8051F026821F0010142E80513002B78
:10212000DAD1016B012924D1016851E8031F02684B
:1021300021F0100142E80313DBB1016851E8031FED
:10214000026821F0100142E8031393B1016851E8DD
:10215000031F026821F0100142E803134BB101682C
:1021600051E8031F026821F0100142E80313002B1D
:10217000DAD1202180F84210002101630168496909
:10218000490640F1C380016851E8051F026821F04B
:10219000400142E80513DBB1016851E8051F026800
:1021A00021F0400142E8051393B1016851E8051F91
:1021B000026821F0400142E805134BB1016851E883
:1021C000051F026821F0400142E80513002BDAD117
:1021D000C16B002900F09A8042F21172C0F6000231
:1021E000044608460A65FEF733FE00283FF41AAE9F
:1021F000E06B016D02B0BDE8B04008470446FFF750
:10220000D9FD0020606402B0B0BD00BF891A00BFD4
:10221000026852E8032F036822F4907243E8032512
:10222000BDB3026852E8032F036822F4907243E8BA
:10223000032575B3026852E8032F036822F49072F5
:1022400043E803252DB3026852E8032F036822F404
:10225000907243E80325002DDAD11AE0026852E8B3
:10226000052F036822F0010243E80525DDB102686D
:1022700052E8052F036822F0010243E8052595B1D5
:10228000026852E8052F036822F0010243E80525A1
:102290004DB1026852E8052F036822F0010243E8BD
:1022A0000525002DDAD1202280F842200022026389
:1022B000026852E8032F036822F0100243E8032566
:1022C000DDB1026852E8032F036822F0100243E8F0
:1022D000032595B1026852E8032F036822F010022B
:1022E00043E803254DB1026852E8032F036822F04A
:1022F000100243E80325002DDAD1022289B242639D
:1023000002B0BDE8B040FFF717BD00BF02B0BDE8A6
:10231000B040FFF74FBD00BF026A32F8023B6FF3D7
:102320005F234B60026295E5002804BF01207047DF
:1023300010B5044690F8410028B9002084F8400008
:10234000204600F021F8242084F841002068C1686C
:1023500021F40051C160204600F036FC206801697C
:1023600021F490410161416921F02A014161C16874
:1023700041F40051C16000202021606484F84110C4
:1023800084F84210606310BDF0B587B00446006861
:1023900044F60001C4F2000100268842CDE905663A
:1023A000CDE90366029653D041F20001C4F2010167
:1023B000884240F0A28043F630000196C4F2020049
:1023C000416941F010014161416901F01001019141
:1023D00001990196016841F002010160006802A9BB
:1023E00000F0020001900198C02002900220CDE987
:1023F0000306032005900720069040F20040C4F237
:102400000200FEF71DFF46F22800C4F2020040F26F
:10241000B00500F59260C2F200054FF00061402265
:1024200085E847004FF440304FF48063C5E9080663
:102430002846C5E90436C5E90666FEF7FDFD002815
:102440004FF025064FF0380718BFFEF7B7FC4AE0FB
:1024500043F630000196C4F20200016941F4802184
:102460000161016901F480210191019901960168DE
:1024700041F004010160006802A900F0040001902D
:1024800001984FF4406002900220CDE9030603203A
:1024900005900720069040F20040C4F2020000F5CB
:1024A0008060FEF7CDFE40F2101546F22800C2F221
:1024B0000005C4F202004FF0006185E843004FF4CC
:1024C00040304FF48062C5E908062846C5E903623A
:1024D000C5E90566EE61FEF7AFFD27264FF03C0724
:1024E00008B1FEF76BFC304600210022E551AC63D9
:1024F000FEF7F8FF3046FEF7E3FF07B0F0BD00003F
:102500007047000070470000B0B590F84140202CA3
:102510001CBF0220B0BD134600294FF0010218BFB6
:10252000002B01D11046B0BD00222124016283841A
:10253000C384426480F84140D0F838C042F6112E7E
:1025400042F6C125C0F6000EC0F600050468CCE9CD
:102550000FE542F21D75C0F60005CCE91352221DAD
:1025600004466046FEF71AFE216820466FF04002DE
:102570000A6000BF016851E8051F026841F0800150
:1025800042E80513DBB1016851E8051F026841F01C
:10259000800142E8051393B1016851E8051F026804
:1025A00041F0800142E805134BB1016851E8051F75
:1025B000026841F0800142E80513002BDAD10022C5
:1025C0001046B0BD7047000070470000FEE70000F5
:1025D00080B582B0002043F630010190C4F20201C0
:1025E0000A6842F480020A600A6802F480020192DA
:1025F000019A00900868002240F400100860086802
:10260000002100F40010009000980C20FEF76AFFF3
:102610000C20FEF755FF462000210022FEF762FF46
:10262000462002B0BDE88040FEF74ABF82B00020DD
:1026300043F630010190C4F202010A6842F002023E
:102640000A600A6802F002020192019A009008688A
:1026500040F004000860086800F004000090009852
:1026600002B0704710B540F2701041F2000CC2F297
:102670000000C4F2010C4FF4E1324FF4805300210A
:102680004FF4806E0C24C0E900C2C0E90231C0E9F9
:1026900004E4C0E90611FFF747FE002808BF10BD9B
:1026A000BDE81040FEF78ABB80B540F2B81044F692
:1026B0000001C2F20000C4F2000148F2A06200234F
:1026C0004FF00C0CC0F2010280E80E00C0E90333A9
:1026D000C0E905C3C361FFF727FE002808BF80BD1E
:1026E000BDE88040FEF76ABBFEE70000FEE70000A1
:1026F0007047000070470000FEF778BE4EF6885025
:10270000CEF20000016841F47001016070470000E2
:10271000806B0021C185C184FFF74CBB806B0168D1
:102720004A6990F84130212B2DD112F080022AD035
:102730000021C184016851E8031F026821F0C00133
:1027400042E80313DBB1016851E8031F026821F07E
:10275000C00142E8031393B1016851E8031F026806
:1027600021F0C00142E803134BB1016851E8031F97
:10277000026821F0C00142E80313002BDAD12021C6
:1027800080F841100168496990F84220222A40F0FF
:102790007D8011F0400179D00021C185016851E8A8
:1027A000031F026821F4907142E80313BBB3016870
:1027B00051E8031F026821F4907142E8031373B3D8
:1027C000016851E8031F026821F4907142E8031385
:1027D0002BB3016851E8031F026821F4907142E8AD
:1027E0000313002BDAD11AE0016851E8051F0268D3
:1027F00021F0010142E80513DBB1016851E8051F32
:10280000026821F0010142E8051393B1016851E823
:10281000051F026821F0010142E805134BB1016870
:1028200051E8051F026821F0010142E80513002B61
:10283000DAD1016B012924D1016851E8031F026834
:1028400021F0100142E80313DBB1016851E8031FD6
:10285000026821F0100142E8031393B1016851E8C6
:10286000031F026821F0100142E803134BB1016815
:1028700051E8031F026821F0100142E80313002B06
:10288000DAD1202180F8421000210163416C41F02F
:1028900010014164FFF78EBA0168806B0968C905B1
:1028A00000F19F800021C185016851E8031F026883
:1028B00021F4807142E80313E3B1016851E8031F7A
:1028C000026821F4807142E803139BB1016851E86A
:1028D000031F026821F4807142E8031353B10168B9
:1028E00051E8031F026821F4807142E80313002BB2
:1028F000DAD100BF016851E8051F026821F001012B
:1029000042E80513BBB3016851E8051F026821F0D6
:10291000010142E8051373B3016851E8051F02681D
:1029200021F0010142E805132BB3016851E8051FAE
:10293000026821F0010142E80513002BDAD11AE008
:10294000016851E8051F026821F0400142E80513C3
:10295000DBB1016851E8051F026821F0400142E83F
:10296000051393B1016851E8051F026821F0400189
:1029700042E805134BB1016851E8051F026821F0D8
:10298000400142E80513002BDAD1202180F84210E3
:10299000016B012925D100BF016851E8031F0268BE
:1029A00021F0100142E80313DBB1016851E8031F75
:1029B000026821F0100142E8031393B1016851E865
:1029C000031F026821F0100142E803134BB10168B4
:1029D00051E8031F026821F0100142E80313002BA5
:1029E000DAD100214163016B012918BFFFF788BDCF
:1029F000818DFFF7A1B90000806B01214163016B5C
:102A0000012918BFFFF77EBD818D4908FFF794B9F2
:102A10000168806B0968C90548BFFFF7D3BD002175
:102A2000C18400BF016851E8051F026821F08001E0
:102A300042E8051383B3016851E8051F026821F0DD
:102A4000800142E805133BB3016851E8051F0268A5
:102A500021F0800142E80513F3B1016851E8051F38
:102A6000026821F0800142E80513002BDAD113E05F
:102A7000016851E8031F026841F0400142E8031376
:102A8000002B08BF7047016851E8031F026841F03E
:102A9000400142E8031393B1016851E8031F026843
:102AA00041F0400142E803134BB1016851E8031FB4
:102AB000026841F0400142E80313002BD8D170476F
:102AC000806BFFF781BD000081B090F84210222991
:102AD00021D183680246B3F5805F09D152F8281FDF
:102AE00052F8183C002B63D003685B680AE000BF13
:102AF00052F8281F13B90369002BF5D003685B68EF
:102B000003F07F030B70116801311160C18D013931
:102B10000A04C18502D001B0704700BF0168CA68CD
:102B200022F02002CA60CA6822F48072CA604A6930
:102B300022F001024A61202180F842100021416305
:102B4000026B012A3CD10163016851E8031F02684E
:102B500021F0100142E80313DBB1016851E8031FC3
:102B6000026821F0100142E8031393B1016851E8B3
:102B7000031F026821F0100142E803134BB1016802
:102B800051E8031F026821F0100142E80313002BF3
:102B9000DAD101680A68D20606D5002200920A68D6
:102BA0000092496800910099818D01B0FFF7C4B887
:102BB000026852686FF35F2221F8022B8162A5E759
:102BC00001B0FFF79DBC0000B0B50446006804F1F9
:102BD00008030ECB0569194325F440552A430261C9
:102BE0006269E3691143C268194349F20C639A436D
:102BF0001143C1604169A26921F4407141F200436F
:102C0000114340F48062C4F201039A42416103D14E
:102C1000FEF76AFD02E000BFFEF752FDE1694FF6E4
:102C20009C7563681922C0F6FF75B1F5004FA0FBD3
:102C300002011FD15A00DB0FFDF750FB48F21F5174
:102C4000C5F2EB11A0FB01235A0905F1805302FBE9
:102C50000300322303EBC000A0FB01014FF4F87026
:102C600000EA111000EB0210C1F342110844216880
:102C70008860B0BD9A009B0FFDF730FB48F21F51F2
:102C8000C5F2EB11A0FB01235A0902FB0500322318
:102C900003EB0010A0FB0101F02000EA511000EB53
:102CA0000210C1F34311084421688860B0BD0000E0
:102CB00040F27010C2F20000FFF77EB840F2B81088
:102CC000C2F20000FFF778B8FEE7000040F27000A3
:102CD000C2F20000043000F0B9BA00000138C0B2FE
:102CE000022899BF03A151F8200043F65A50C0F6BC
:102CF00000007047623D0008553D0008513D000846
:102D000043F6405143F65A52C0F60001C0F60002A5
:102D1000002808BF0A4643F64951C0F600010128C1
:102D200018BF11460846704743F6405143F65A52C1
:102D3000C0F60001C0F60002002808BF0A4643F6AC
:102D40004951C0F60001012818BF114608467047D6
:102D500002EE100AB8EE422A32EE402A31EEC13AB3
:102D600022EE032A30EEC00A82EE000A30EE410A5B
:102D70007047000070470000F0B581B02DED088B62
:102D800090B00446007A617A9FEDF9AA9FEDF9BAF6
:102D9000BFEE008AB7EE009A61F30A20B0EE4A0A4D
:102DA000F0EE4B0AB0EE481AF0EE491AFFF7D0FFEA
:102DB00010EE100A00F0EAFE41EC100B43F66552EB
:102DC0000DF10E05C0F60002284632218DED000BF4
:102DD000FDF7FCFA2846FDF7C9FB40F27016C2F277
:102DE000000682B230462946FFF78EFB607AA17A50
:102DF000C00861F34A10B0EE4A0AF0EE4B0AB0EE9A
:102E0000481AF0EE491AFFF7A3FF10EE100A00F07F
:102E1000BDFE41EC100B43F68152C0F6000228467D
:102E200032218DED000BFDF7D1FA2846FDF79EFB10
:102E300082B230462946FFF767FBE17AA07A227B0F
:102E4000890041EA901062F38A20B0EE4A0AF0EE5F
:102E50004B0AB0EE481AF0EE491AFFF779FF10EE70
:102E6000100A00F093FE41EC100B43F69D52C0F6A1
:102E70000002284632218DED000BFDF7A7FA284607
:102E8000FDF774FB82B230462946FFF73DFB207BFD
:102E9000617B400861F3CA10B0EE4A0AF0EE4B0ABB
:102EA000B0EE481AF0EE491AFFF752FF10EE100A82
:102EB00000F06CFE43F6B95741EC100BC0F600076A
:102EC000284632213A468DED000BFDF77FFA284661
:102ED000FDF74CFB82B230462946FFF715FB207BFD
:102EE000617B400861F3CA10B0EE4A0AF0EE4B0A6B
:102EF000B0EE481AF0EE491AFFF72AFF10EE100A5A
:102F000000F044FE41EC100B284632213A468DED8C
:102F1000000BFDF75BFA2846FDF728FB82B230462E
:102F20002946FFF7F1FA607BC0F30110FFF7D6FEE8
:102F300043F628620346C0F6000228463221FDF718
:102F400045FA2846FDF712FB82B230462946FFF7C4
:102F5000DBFA607B8009FFF7C1FE43F6416203465E
:102F6000C0F6000228463221FDF730FA2846FDF768
:102F7000FDFA82B230462946FFF7C6FA9FED8BAACA
:102F80009FED8BBA208AB0EE4A0AF0EE4B0AB0EE03
:102F9000481AF0EE491AFFF7DBFE10EE100A00F0B7
:102FA000F5FD41EC100B43F6D552C0F60002284661
:102FB00032218DED000BFDF709FA2846FDF7D6FA10
:102FC00082B230462946FFF79FFA608AB0EE4A0A7D
:102FD000F0EE4B0AB0EE481AF0EE491AFFF7B8FED1
:102FE00010EE100A00F0D2FD41EC100B43F6F55242
:102FF000C0F60002284632218DED000BFDF7E6F900
:103000002846FDF7B3FA82B230462946FFF77CFA2C
:10301000207DFFF789FE43F65B620346C0F600029F
:1030200028463221FDF7D2F92846FDF79FFA82B2F1
:1030300030462946FFF768FA607DFFF775FE43F6D4
:1030400079620346C0F6000228463221FDF7BEF938
:103050002846FDF78BFA82B230462946FFF754FA2C
:10306000A07D00F00100FFF74BFE43F6156203461A
:10307000C0F6000228463221FDF7A8F92846FDF7E0
:1030800075FA82B230462946FFF73EFAA07DC0F3BA
:103090004000FFF735FE034646A228463221FDF7E1
:1030A00095F92846FDF762FA82B230462946FFF7C5
:1030B0002BFAA07DC0F38000FFF722FE034642A258
:1030C00028463221FDF782F92846FDF74FFA82B2F1
:1030D00030462946FFF718FAA07DC0F3C000FFF77D
:1030E0000FFE03463DA228463221FDF76FF9284620
:1030F000FDF73CFA82B230462946FFF705FAA07D7B
:10310000C0F30010FFF7FCFD034639A22846322128
:10311000FDF75CF92846FDF729FA82B230462946C8
:10312000FFF7F2F9A07DC0F34010FFF7E9FD034679
:1031300034A228463221FDF749F92846FDF716FA50
:1031400082B230462946FFF7DFF9A07DC0F3801038
:10315000FFF7D6FD034630A228463221FDF736F9A7
:103160002846FDF703FA82B23046294600F004B83B
:103170000000B6430080D244FFF7C6F9A07DC00925
:10318000FFF7BEFD03462AA228463221FDF71EF9AD
:103190002846FDF7EBF982B230462946FFF7B4F92D
:1031A00010B0BDEC088B01B0F0BD00BF000000C73F
:1031B00000FEFF46546865206B65792053206973D3
:1031C0003A2025730D0A0000546865206B6579204C
:1031D000412069733A2025730D0A00005468652068
:1031E0006B657920462069733A2025730D0A00002B
:1031F000546865206B657920512069733A202573E6
:103200000D0A0000546865206B65792045206973BC
:103210003A2025730D0A0000546865206B657920FB
:1032200053686966742069733A2025730D0A00009B
:10323000546865206B6579204374726C2069733A19
:103240002025730D0A00000008307047002140F26D
:103250000332816142834FF08942C0E90411C0E921
:103260000211C0E90011C0E90722C0E90922C0E942
:103270000B1141630187704792B0FEF7C5F806ACA9
:1032800020463021FDF791F9002543F640000595D1
:10329000CDE90355CDE901550095C4F2020001685E
:1032A000012241F080510160006800F080500090E0
:1032B000009847F200000095C4F20000016862F334
:1032C0008F310160006800F44040009000980220B7
:1032D000069010200A90204609920C95FEF74EFAAF
:1032E00000284BD10F20CDE9010501A80021CDE92F
:1032F00003550595FEF732F9002841D1FFF796F9FD
:10330000FFF766F9FFF7AEF9FFF7CEF940F2700864
:10331000C2F2000808F104042046FFF72BFD40F23A
:10332000B815C2F20005014628460422FEF712FC39
:1033300040F21017C2F20007386840F270160168B8
:10334000C2F2000621F00801016011201128FDD110
:10335000F06BFDF735FD2046FFF70EFD2046FFF729
:1033600009FD014628460422FEF7F4FB386801688F
:1033700021F008010160B8F80000E7E772B600BF6D
:1033800072B65FEA400C08BF91F0000F4FEA8C2341
:103390004FEAC12243EA51514FEA1C5018BF00F5D1
:1033A000F0404FEA300018BF41F000415FEA6C5C2A
:1033B00000F02980BCF1FF3F08BF40F0804070471B
:1033C000130C06BF12044FF0100C4FF0000C130E3C
:1033D00004BF12020CF1080C130F04BF12010CF110
:1033E000040C930F04BF92000CF1020CD30F04BF26
:1033F00052000CF1010C11464FF00002A0F11F0029
:10340000A0EB0C00704711F0004F08BF704731F07F
:1034100000413FF4D5AF0B0C06BF09044FF0100C70
:103420004FF0000C0B0E04BF09020CF1080C0B0F3F
:1034300004BF09010CF1040C8B0F04BF89000CF1CF
:10344000020CCB0F04BF49000CF1010CCCF120039E
:1034500022FA03F341EA030102FA0CF2A0EB0C009A
:1034600000F101007047000023F07F4720F07F4CFF
:1034700080EA030000F00040ACEB070303F57C5347
:1034800003F1FF032DE9804909B44FEA144324EA0C
:1034900003484FEA154B25EA0B4E0FF2042606EBC4
:1034A00013273E7803FB0667C7F5000707FB06F600
:1034B0004FEAD64606F102064FEA543707FB066C80
:1034C000CCF1005C4FEA1C472CEA074C0CFB06F5DC
:1034D00007FB06F404EB15464FEA961649085FEA27
:1034E000320234BF00204FF000404FEAD13706FBD4
:1034F00007FC4FEA1C4C0CFB0BF7D21B03FB0CF731
:1035000061EB07010CFB0EF7B0EB074072EB1742C3
:103510000CFB08F734BFA2EB0742B2EB074261EBAA
:1035200017414FEA0C444FEA910706FB07FC4FEAAC
:103530001C4C0CFB0BF7B0EBC74072EB573203FB94
:103540000CF734BFA2EBC742B2EBC74261EB573175
:103550000CFB0EF7B0EBC70072EB57720CFB08F7D1
:1035600034BFA2EBC702B2EBC70261EB57714FEA5F
:10357000816141EA92114FEA826242EA90124FEA77
:10358000806004EBCC04039F4FEAD13706FB07FCB5
:103590004FEA1C4C0CFB0BF7D21B03FB0CF761EB47
:1035A00007010CFB0EF7B0EB074072EB17420CFB68
:1035B00008F734BFA2EB0742B2EB074261EB1741B9
:1035C0004FEA8C5504EB9C244FEA910706FB07FC5D
:1035D0004FEA1C4C0CFB0BF7B0EBC74072EB5732B9
:1035E00003FB0CF734BFA2EBC742B2EBC74261EB5F
:1035F00057310CFB0EF7B0EBC70072EB57720CFBA8
:1036000008F734BFA2EBC702B2EBC70261EB5771F8
:103610004FEA816141EA92114FEA826242EA9012D6
:103620004FEA806015EB4C2544F100044FEAD13796
:1036300006FB07FC4FEA1C4C0CFB0BF7D21B03FBF1
:103640000CF761EB07010CFB0EF7B0EB074072EBD8
:1036500017420CFB08F734BFA2EB0742B2EB07425C
:1036600061EB17414FEA813141EA92414FEA8232E0
:1036700042EA90424FEA80304FEA0C7615EB1C1577
:1036800044F1000448EA03434EEA0B484FF0000EB1
:10369000B2EB080C71EB030724BF624639464EEBD0
:1036A0000E0E4FF0000B0018524149414BEB0B0B33
:1036B000B2EB080C71EB03077BF1000B24BF6246F1
:1036C00039464EEB0E0E4FF0000B001852414941A7
:1036D0004BEB0B0BB2EB080C71EB03077BF1000B10
:1036E00024BF624639464EEB0E0E51EA020718BF60
:1036F00046F0010616EB0E7655F1000254F100017A
:1037000003D5BDE88901BDE80088BDE88901BDE8B1
:103710000048B619524141EB0101A3F10103704782
:1037200080807F7E7D7C7B7A7978777676757473FE
:10373000727171706F6E6E6D6C6C6B6A6A696868BD
:10374000676666656464636362616160605F5F5E53
:103750005E5D5D5C5C5B5B5A5A59595858575756C9
:10376000565555555454535352525251515050502E
:103770004F4F4F4E4E4D4D4D4C4C4C4B4B4B4A4A80
:103780004A494949484848474747474646464545C4
:1037900045444444444343434342424242414141FD
:1037A0009C46002B30D477002BD04FEA37071CB54E
:1037B00003B44FF010004FF01001BAF1000F06D023
:1037C000BCF1000FDCBF40F0080040F008014FF0F2
:1037D00000000FBCBDE810400BF1010BBBF1010F65
:1037E00008BF5FEA170722BF12F1010211F10101C0
:1037F0004FF0004143F1000300F0004043EA0000B5
:103800007047F9D35708D0E746EA06464FEA16460E
:1038100013F1400F1FDD13F1200FDFBF16430A46DF
:10382000002120335B42BED0C3F1200746EA0646A2
:103830004FEA164602FA07F746EA070622FA03F2AB
:10384000C3F1200701FA07F742EA070221FA03F160
:103850004FF00003A7E746EA020646EA06464FEAAB
:10386000164646EA0106BCBF46EA0646360C4FF04D
:1038700000034FF000024FF0000194E72DE9804C67
:1038800070B49A46934691E8380007C831EA400C74
:1038900048BF34EA430C03D5FFF7E6FDFFF780FF8E
:1038A000F0BCBDE8008C2DE9804C70B49A4693467C
:1038B00091E8380007C810F0804F08BF13F0804F20
:1038C00003D100F005F8FFF76BFFF0BCBDE8008CFA
:1038D00020F07F4723F07F4C80EA030000F0004097
:1038E00007EB0C03A3F57C53A3F1FE0392F0000F4A
:1038F00000F0B38095F0000F00F077802DE90149CA
:103900004FEA114021EA00484FEA144624EA0647EC
:1039100000FB06FC08FB06F607FB08F818EB064858
:103920004CEB164C00FB07F718EB07484CEB174025
:103930004FEA124B22EA0B4E4FEA154625EA06479C
:103940000BFB06FC0EFB06F607FB0EFE1EEB064EFF
:103950004CEB164C0BFB07F71EEB074E4CEB174BD3
:1039600018EB0B0840F1000018EB0E0B58EB0008A9
:1039700040F100008F1A4FF000014FF000063CBFED
:10398000C943661B14BFB5EB040C00213CBFC943FF
:10399000F61B4FEA174427EA04454FEA1C472CEA76
:1039A000074C04FB076205FB07F70CFB05F616EB5B
:1039B000074642EB174204FB0CFC16EB0C4642EBAD
:1039C0001C421BEB060658EB020241414EEA8E0EEA
:1039D00046EA9E0601D5BDE80189B619524141EB80
:1039E0000101A3F10103BDE801894FEA144524EA6E
:1039F00005464FEA114721EA074C05FB07F406FB91
:103A000007F70CFB06F111EB074144EB174405FBEC
:103A10000CFC11EB0C4144EB1C444FEA124722EA28
:103A2000074C05FB07F206FB07F70CFB06F616EB47
:103A3000074642EB174205FB0CFC16EB0C4642EB2B
:103A40001C456A1854F1000148BF7047B61952412D
:103A500041EB0101A3F10103704795F0000F37D04E
:103A60004FEA114221EA02464FEA144724EA074C82
:103A700002FB07F106FB07F70CFB06F414EB074407
:103A800041EB174102FB0CFC14EB0C4441EB1C41D5
:103A90004FEA154725EA074C02FB07F506FB07F737
:103AA0000CFB06F616EB074645EB174502FB0CFC34
:103AB00016EB0C4645EB1C42121951F1000148BFB0
:103AC0007047B619524141EB0101A3F10103704760
:103AD0004FEA144524EA05464FEA114721EA074C0C
:103AE00005FB07F106FB07F70CFB06F212EB07429A
:103AF00041EB174105FB0CFC12EB0C4251EB1C4156
:103B00004FF0000648BF7047921841EB0101A3F146
:103B10000103704703B401984100009850EAC120A6
:103B200018BF04204A0D18BF40F0010040F2FF7298
:103B3000B2EB515F08BF40F00200012808BF05202A
:103B400002B0704730380A2801D2012070470020A7
:103B50007047000010B500290AD00878002807D067
:103B600005487844FDF7D4F8002801D0002010BDA6
:103B70000248784410BD0000560300004E030000C8
:103B80000808A0F500114FEA3101704743004FEAE1
:103B9000D30C4FEA3C0C43401FBF40070CF160516F
:103BA00013F0FE4F70471CF0006F03D10CF0004182
:103BB000002070470CF0004343EA507040EACC000C
:103BC00010B500F00EF800BF000000924FEA0001AF
:103BD000FFF7D6BF4FF00041A1F500214FF00000E4
:103BE00070470EF1020E2EF0030E5EF8044B2442D5
:103BF00004D44FEA4102B2F17F4F11D84FEA40039B
:103C0000B3F17F4F0CD80ED14FEAD07C0CEB4C0CAB
:103C10000CF1020CB2F17F4F08BF4CEBD17C04E0F9
:103C20004FF0080C01E04FEAD17C0CEB4C0324FA76
:103C300003F404F00704B4F1040C06D20EEB840C78
:103C4000BDE810404CF0010C6047DFE80CF00708BD
:103C500002024FF00040A0F5800010BD084642006F
:103C600018BFD2F1807288BF00F0004010BDF1EEA5
:103C7000100A4FF6FF71C0F2C03120EA010040F097
:103C80004070E1EE100A7047FCF7A8BD024000004A
:103C9000000000A00000000005400000000000C877
:103CA000000000000C4000000000409C00000000EC
:103CB000194000000020BCBE00000000344000009D
:103CC000BFC91B8E00000004B5400000504BCFD090
:103CD0006607E2CF010000006C4100003E8251AA5D
:103CE000DFEEA73401000000D9420000DCB5A0E2FD
:103CF0003A301F97FFFFFFFFB4450000FD25A0C825
:103D0000E9A3C14FFFFFFFFFFF3F0000000000805D
:103D100000000000FF3F00000000008000000000E5
:103D2000000000000000000001020304060708096B
:103D30000000000001020304000610160006101621
:103D400052454C4541534544005052455353454418
:103D5000004D494400444F574E00554E4B4E4F576F
:103D60004E00555000546865204348305F506F73D3
:103D70006974696F6E2069733A20252E34660D0AC6
:103D800000546865204348315F506F736974696FF0
:103D90006E2069733A20252E34660D0A005468653A
:103DA000204348325F506F736974696F6E20697386
:103DB0003A20252E34660D0A0054686520434833A6
:103DC0005F506F736974696F6E2069733A20252E96
:103DD00034660D0A00546865204D6F7573655F7910
:103DE0005F506F736974696F6E2069733A20252E76
:103DF00034660D0A00546865204D6F7573655F7AEF
:103E00005F506F736974696F6E2069733A20252E55
:103E100034660D0A00546865206B65792057206967
:103E2000733A2025730D0A00546865206C6566742A
:103E3000207377697463682069733A2025730D0ACB
:103E400000546865207269676874207377697463C9
:103E5000682069733A2025730D0A00546865206D47
:103E60006F757365206C656674207072657373205E
:103E700069733A2025730D0A00546865206D6F75CB
:103E80007365207269676874207072657373206946
:103E9000733A2025730D0A00D83E00080000002068
:103EA0001000000010020008E83E0008100000208A
:103EB000F8070000300200081C000000430000006A
:103EC000F8FFFFFF0C0000000E0000000F000000D4
:103ED0002E000000F9EDFFFF0100000010000000BF
:083EE0000024F40000000000C2
:04000005080001AD41
:00000001FF
