:020000040800F2
:1000000000000320A5060008DD050008DF05000844
:10001000E1050008E3050008E50500080000000010
:10002000000000000000000000000000E7050008DC
:10003000E905000800000000EB050008ED050008D8
:10004000F5060008F5060008F5060008F5060008A4
:10005000F5060008F5060008F5060008F506000894
:10006000F5060008F5060008F5060008F506000884
:10007000F5060008F5060008F5060008F506000874
:10008000F5060008F5060008F5060008F506000864
:10009000F5060008F5060008F5060008F506000854
:1000A000F5060008F5060008F5060008F506000844
:1000B000F5060008F5060008F5060008F506000834
:1000C000F5060008F5060008F5060008F506000824
:1000D000F5060008F5060008F5060008F506000814
:1000E000F5060008F5060008F5060008F506000804
:1000F000F5060008F5060008F5060008F5060008F4
:10010000F5060008F5060008F5060008F5060008E3
:10011000F5060008F5060008F5060008F5060008D3
:10012000F5060008F5060008F5060008F5060008C3
:10013000F5060008F5060008F5060008F5060008B3
:10014000F5060008F5060008F5060008F5060008A3
:10015000F5060008F5060008F5060008F506000893
:10016000F5060008F5060008F5060008F506000883
:10017000F5060008F5060008F50600080000000076
:10018000F5060008F5060008F5060008F506000863
:10019000F5060008F5060008F5060008F506000853
:0C01A0000000000000000000F506000850
:1001AC0010B5054C237833B9044B13B10448AFF3A5
:1001BC0000800123237010BD1000002000000000FF
:1001CC005C13000808B5034B1BB103490348AFF39C
:1001DC00008008BD00000000140000205C13000823
:1001EC0053B94AB9002908BF00281CBF4FF0FF3192
:1001FC004FF0FF3000F06AB9ADF1080C6DE904CE98
:10020C0000F006F8DDF804E0DDE9022304B07047E5
:10021C002DE9F047089D0C46002B4ED194468C4599
:10022C008646B2FA82F262D94AB1C2F120039140F9
:10023C0020FA03F30CFA02FC194300FA02FE4FEA0F
:10024C001C471FFA8CF6B1FBF7F44FEA1E4307FB71
:10025C00141143EA014304FB06F199420AD91CEB41
:10026C00030304F1FF3080F01281994240F20F81B8
:10027C00023C6344591A1FFA8EF3B1FBF7F007FBEB
:10028C00101143EA014300FB06F69E420AD91CEB0F
:10029C00030300F1FF3180F0FC809E4240F2F980B4
:1002AC00634402389B1B40EA044000211DB1D3403B
:1002BC000022C5E90032BDE8F0878B4205D90DB1AB
:1002CC00C5E9000100210846F5E7B3FA83F10029DE
:1002DC0046D1A34202D39042C0F0F080861A64EB60
:1002EC0003030120002DE6D0C5E90063E3E7002AF3
:1002FC0040F09080A1EB0C044FEA1C481FFA8CF7DD
:10030C000121B4FBF8F64FEA1E4308FB164443EAFE
:10031C00044307FB06F0984208D91CEB030306F1D3
:10032C00FF3402D2984200F2CD8026461C1A1FFAE6
:10033C008EF3B4FBF8F008FB104443EA044300FBD3
:10034C0007F79F4208D91CEB030300F1FF3402D2DC
:10035C009F4200F2B0802046DB1B40EA0640A5E736
:10036C00C1F120068B4022FA06F71F4320FA06FC47
:10037C0004FA01F343EA0C03F44000FA01F8380CD8
:10038C004FEA1349B4FBF0FE1FFA87FC00FB1E4436
:10039C0049EA04440EFB0CF9A14502FA01F20AD910
:1003AC003C190EF1FF3A80F08480A14540F2818027
:1003BC00AEF1020E3C44A4EB09041FFA83F9B4FB22
:1003CC00F0F300FB134449EA044403FB0CFCA44582
:1003DC0007D93C1903F1FF3067D2A44565D9023B1C
:1003EC003C4443EA0E40A0FB0293A4EB0C049C4259
:1003FC00CE469C4651D34ED055B1B8EB0E0364EBB0
:10040C000C0404FA06F6CB401E43CC40C5E900644C
:10041C00002150E7C2F1200320FA03F10CFA02FC90
:10042C0024FA03F394400C434FEA1C4800FA02FEF2
:10043C001FFA8CF7B3FBF8F008FB1031230C43EADE
:10044C00014300FB07F1994208D91CEB030300F1AF
:10045C00FF362CD299422AD9023863445B1AA4B2D3
:10046C00B3FBF8F108FB113344EA034401FB07F337
:10047C00A34208D91CEB040401F1FF3613D2A342AA
:10048C0011D902396444E41A41EA004139E70446BF
:10049C00F0E6084606E7C845AED2B9EB020E63EBB0
:1004AC00070C0138A8E73146EDE7034699E73046DB
:1004BC00D4E7D6467FE7634402384DE70646234629
:1004CC0008460FE7023E634430E700BF704700BFA9
:1004DC0082B000230193064B1A6B42F002021A639E
:1004EC001B6B03F002030193019B02B0704700BF2A
:1004FC000038024072B6FEE700B595B030220021FC
:10050C0008A800F093FE002303930493059306932D
:10051C0007930193194A116C41F080511164126CCC
:10052C0002F080520192019A029315490A6822F452
:10053C00404242F480420A600A6802F4404202924D
:10054C00029A0222089201220B9210220C920E9314
:10055C0008A800F08DFA68B90F23039300210491C9
:10056C0005910691079103A800F0D2FC20B915B0B3
:10057C005DF804FBFFF7BEFFFFF7BCFF003802403D
:10058C000070004008B500F0D7F8FFF7B5FFFFF793
:10059C009FFF00F02BF8FEE782B0002100910B4B7F
:1005AC005A6C42F480425A645A6C02F480420092B3
:1005BC00009A01911A6C42F080521A641B6C03F081
:1005CC0080530193019B02B0704700BF003802407A
:1005DC00FEE7FEE7FEE7FEE7FEE770477047704771
:1005EC0008B500F0C3F808BD7047000008B50B480B
:1005FC000B4B03600B4B436000238360C3604FF4D1
:10060C00806202610C2242618361C36100F0DEFDF5
:10061C0000B908BDFFF76EFFFBE700BF2C00002000
:10062C0000100140A086010000B589B0002303939F
:10063C000493059306930793026803F1804303F533
:10064C0088339A4202D009B05DF804FB0021019175
:10065C0003F594335A6C42F010025A645A6C02F04F
:10066C0010020192019A02911A6B42F002021A6373
:10067C001B6B03F002030293029BC0230393022320
:10068C000493032306930723079303A9014800F05F
:10069C00E9F8D8E700040240DFF834D0FFF7A4FFF4
:1006AC000C480D490D4A002302E0D458C4500433C1
:1006BC00C4188C42F9D30A4A0A4C002301E0136097
:1006CC000432A242FBD300F0B9FDFFF75BFF704789
:1006DC00000003200000002010000020A0130008E0
:1006EC001000002010020020FEE7000010B50446A8
:1006FC000E4B1A784FF47A73B3FBF2F30C4A106872
:10070C00B0FBF3F000F09AF868B90F2C01D9012076
:10071C000AE0002221464FF0FF3000F07FF8054B35
:10072C001C60002000E0012010BD00BF0400002070
:10073C00000000200800002008B50B4B1A6842F49A
:10074C0000721A601A6842F480621A601A6842F4E5
:10075C0080721A60032000F04FF80F20FFF7C6FFDD
:10076C00FFF71AFF002008BD003C0240034A116845
:10077C00034B1B780B441360704700BF74000020C0
:10078C0004000020014B1868704700BF7400002063
:10079C00002808DB0901C9B200F1604000F5614096
:1007AC0080F80013704700F00F000901C9B2014B2B
:1007BC001954704714ED00E000B500F00700C0F1CB
:1007CC00070CBCF1040F28BF4FF0040C031D062BC3
:1007DC000FD9C31E4FF0FF3E0EFA0CF021EA0001B8
:1007EC0099400EFA03FE22EA0E0241EA02005DF87D
:1007FC0004FB0023EEE70000074AD36823F4E06310
:10080C001B041B0C000200F4E060034343F0BF63C5
:10081C0043F40033D360704700ED00E010B504469C
:10082C00054BD868C0F30220FFF7C6FF01462046EF
:10083C00FFF7AEFF10BD00BF00ED00E00138B0F1D6
:10084C00807F0BD24FF0E0235861054AF02182F8EB
:10085C0023100020986107221A617047012070470D
:10086C0000ED00E000230F2B00F2F98030B583B0CF
:10087C0069E085684FEA430E032404FA0EF425EA76
:10088C000405CC6804FA0EF42C438460446824EA12
:10089C0002044A68C2F300129A402243426060E0AC
:1008AC00DC08083450F8242003F00705AD004FF0A5
:1008BC000F0E0EFA05FE22EA0E0E0A69AA4042EA53
:1008CC000E0240F8242060E0092200E0002202FA27
:1008DC000EF22A430234624D45F82420614A946892
:1008EC006FEA0C0224EA0C05D1F804E01EF4801F18
:1008FC0001D04CEA04055B4CA560E46802EA0405EF
:10090C00D1F804E01EF4001F01D04CEA0405554C4C
:10091C00E560646802EA0405D1F804E01EF4003FC7
:10092C0001D04CEA04054F4C6560246822404D68A8
:10093C0015F4803F01D04CEA04024A4C226001338A
:10094C000F2B00F28A8001229A400C6804EA020CF8
:10095C0032EA0404F3D14C6804F00304013C012C8A
:10096C0087D94A6802F00302032A09D0C4685D00E3
:10097C000322AA4024EA02048A68AA402243C260E5
:10098C004A6802F00302022A8AD004684FEA430E36
:10099C00032202FA0EF224EA02044A6802F003026D
:1009AC0002FA0EF2224302604A6812F4403FC6D0AB
:1009BC00002201922C4A546C44F480445464526CCE
:1009CC0002F480420192019A9C08A51C244A52F818
:1009DC00255003F0030E4FEA8E0E0F2202FA0EF290
:1009EC0025EA0205214A90423FF470AF02F580627D
:1009FC00904222D002F58062904220D002F58062B3
:100A0C0090421ED002F5806290421CD002F58062AA
:100A1C0090421AD002F58062904218D002F58062A2
:100A2C00904216D002F58062904214D002F580629A
:100A3C0090423FF449AF0A2249E7012247E70222DC
:100A4C0045E7032243E7042241E705223FE706225C
:100A5C003DE707223BE7082239E703B030BD70477A
:100A6C0000380140003C01400038024000000240C8
:100A7C00002800F0E08170B582B00446036813F0E2
:100A8C00010F3BD09F4B9B6803F00C03042B2CD025
:100A9C009C4B9B6803F00C03082B21D06368B3F5C7
:100AAC00803F4FD0B3F5A02F52D0964B1A6822F44A
:100ABC0080321A601A6822F480221A606368002B54
:100ACC0050D0FFF75FFE05468E4B1B6813F4003FBA
:100ADC0014D1FFF757FE401B6428F5D90320B1E170
:100AEC00884B5B6813F4800FD8D0864B1B6813F4CB
:100AFC00003F03D06368002B00F09F81236813F044
:100B0C00020F54D07F4B9B6813F00C0F3ED07D4BE3
:100B1C009B6803F00C03082B33D0E368002B68D0E0
:100B2C00794B01221A60FFF72DFE0546754B1B68A9
:100B3C0013F0020F54D1FFF725FE401B0228F5D904
:100B4C0003207FE16F4A136843F480331360B5E7E9
:100B5C006C4B1A6842F480221A601A6842F4803294
:100B6C001A60ABE7FFF70EFE0546664B1B6813F4E5
:100B7C00003FC3D0FFF706FE401B6428F5D90320C5
:100B8C0060E1604B5B6813F4800FC6D15D4B1B6852
:100B9C0013F0020F03D0E368012B40F05081594A47
:100BAC00136823F0F803216943EAC1031360236837
:100BBC0013F0080F42D063696BB3534B0122C3F897
:100BCC00802EFFF7DFFD05464E4B5B6F13F0020FD7
:100BDC0034D1FFF7D7FD401B0228F5D9032031E1B2
:100BEC00484A136823F0F803216943EAC1031360F0
:100BFC00DDE7454B00221A60FFF7C4FD0546414B6B
:100C0C001B6813F0020FD2D0FFF7BCFD401B02286B
:100C1C00F5D9032016E13C4B0022C3F8802EFFF7D8
:100C2C00B1FD0546374B5B6F13F0020F06D0FFF793
:100C3C00A9FD401B0228F5D9032003E1236813F01A
:100C4C00040F77D02F4B1B6C13F0805F33D1002334
:100C5C0001932C4B1A6C42F080521A641B6C03F0FB
:100C6C0080530193019B0125284B1B6813F4807F53
:100C7C0023D0A368012B34D0052B38D0214B1A6F0D
:100C8C0022F001021A671A6F22F004021A67A36895
:100C9C00002B3DD0FFF776FD06461A4B1B6F13F069
:100CAC00020F46D1FFF76EFD801B41F2883398424C
:100CBC00F3D90320C6E00025D6E7144A136843F4A1
:100CCC0080731360FFF75EFD0646104B1B6813F430
:100CDC00807FCED1FFF756FD801B0228F5D903206B
:100CEC00B0E0084A136F43F001031367CFE7054BDD
:100CFC001A6F42F004021A671A6F42F001021A6767
:100D0C00C5E700BF003802400000474200700040B9
:100D1C00FFF738FD0646524B1B6F13F0020F08D03D
:100D2C00FFF730FD801B41F288339842F3D9032042
:100D3C0088E0EDB9A369002B00F08380484A9268E3
:100D4C0002F00C02082A51D0022B17D0454B00227E
:100D5C001A66FFF717FD0446414B1B6813F0007F22
:100D6C0042D0FFF70FFD001B0228F5D9032069E0E4
:100D7C003B4A136C23F080531364DBE7394B00229E
:100D8C001A66FFF7FFFC0546354B1B6813F0007F16
:100D9C0006D0FFF7F7FC401B0228F5D9032051E0E1
:100DAC00E369226A1343626A43EA8213A26A520815
:100DBC00013A43EA0243E26A43EA0263284A536077
:100DCC00284B01221A66FFF7DDFC0446244B1B68F6
:100DDC0013F0007F06D1FFF7D5FC001B0228F5D9D4
:100DEC0003202FE000202DE000202BE0012B2BD046
:100DFC001B4B5B6803F48001E269914226D103F03E
:100E0C003F02216A8A4223D1616A47F6C0721A40B6
:100E1C00B2EB811F1ED103F44031A26A5208013A91
:100E2C00B1EB024F18D103F07063E26AB3EB026FBF
:100E3C0014D1002006E001207047012002E00120BF
:100E4C0000E0002002B070BD0120FBE70120F9E7B3
:100E5C000120F7E70120F5E70120F3E70120F1E796
:100E6C00003802400000474208B5264B9B6803F04F
:100E7C000C03042B41D0082B41D1224B5A6802F0B1
:100E8C003F025B6813F4800F12D01E4B5968C1F3FC
:100E9C0088111D480023A1FB0001FFF7A1F9194B94
:100EAC005B68C3F3014301335B00B0FBF3F027E055
:100EBC00144B5868C0F388104FEA401CBCEB000C74
:100ECC006EEB0E0E4FEA8E1343EA9C634FEA8C11C5
:100EDC00B1EB0C0163EB0E03DB0043EA5173C90069
:100EEC0011EB000C43F10003990200234FEA8C2014
:100EFC0041EA9C51FFF774F9D1E7034800E003483D
:100F0C0008BD00BF0038024040787D010024F40089
:100F1C00002800F09B8070B50D4604464F4B1B68B3
:100F2C0003F00F038B4208D2CBB24C4A13701368F8
:100F3C0003F00F038B4240F08B80236813F0020FF9
:100F4C0017D013F0040F04D0454A936843F4E053D0
:100F5C009360236813F0080F04D0414A936843F45C
:100F6C00604393603E4A936823F0F003A1680B43FF
:100F7C009360236813F0010F32D06368012B21D0EA
:100F8C009A1E012A25D9364A126812F0020F61D036
:100F9C0033498A6822F0030213438B60FFF7F2FB9C
:100FAC0006462F4B9B6803F00C036268B3EB820F71
:100FBC0016D0FFF7E7FB801B41F288339842F0D93B
:100FCC00032042E0264A126812F4003FE0D10120CF
:100FDC003BE0234A126812F0007FD9D1012034E0A3
:100FEC001E4B1B6803F00F03AB4207D9EAB21B4B35
:100FFC001A701B6803F00F03AB422DD1236813F05A
:10100C00040F06D0164A936823F4E053E1680B43AF
:10101C009360236813F0080F07D0114A936823F4E8
:10102C006043216943EAC1039360FFF71DFF0C4B3A
:10103C009B68C3F303130B4AD35CD8400A4B18606C
:10104C000A4B1868FFF752FB002070BD0120704757
:10105C000120FAE70120F8E70120F6E7003C024006
:10106C00003802407C13000800000020080000201B
:10107C00014B1868704700BF0000002008B5FFF74F
:10108C00F7FF044B9B68C3F38223034AD35CD8401D
:10109C0008BD00BF003802407413000808B5FFF704
:1010AC00E7FF044B9B68C3F34233034AD35CD8403D
:1010BC0008BD00BF003802407413000810B5044688
:1010CC000268136923F44053C1680B4313618368AE
:1010DC0002691A4343691A43C3691A430168CB680E
:1010EC0023F4164323F00C031343CB6002685369BB
:1010FC0023F4407381690B4353610368314A934273
:10110C0006D002F58062934202D0FFF7B7FF01E0F0
:10111C00FFF7C4FFE369B3F5004F29D00021031892
:10112C0049411B1841F10001C90041EA5371DB0030
:10113C00181863684FEA83024FEA937341F1000178
:10114C00FFF74EF8204AA2FB00314909642303FB48
:10115C0011031B013233A2FB03235B0903F0F002E2
:10116C0002EB011203F00F03216813448B6010BDD6
:10117C000023021843EB0301121841F10001C900CE
:10118C0041EA5271D200101841F1000162689218C4
:10119C005B41FFF725F80C4AA2FB00314909642397
:1011AC0003FB1103DB003233A2FB03235B095A0060
:1011BC0002F4F87202EB011203F0070321681344E6
:1011CC008B60D4E7001001401F85EB5160B310B564
:1011DC00044690F8413013B3242384F8413022683C
:1011EC00D36823F40053D3602046FFF767FF2268CF
:1011FC00136923F4904313612268536923F02A0383
:10120C0053612268D36843F40053D36000206064B8
:10121C00202384F8413084F84230606310BD80F89C
:10122C004030FFF701FAD7E701207047024403462C
:10123C00934200D1704703F8011BF9E770B50D4DCF
:10124C000D4C641BA4100026A64209D10B4D0C4C6E
:10125C0000F07EF8641BA4100026A64205D170BDD8
:10126C0055F8043B98470136EEE755F8043B984790
:10127C000136F2E794130008941300089413000845
:10128C009C13000870477047024B13B1024800F0E2
:10129C0005B8704700000000B51200080023014695
:1012AC001A46184600F014B838B5074D074C641BA5
:1012BC00A4101CB9BDE8384000F050B8013C55F8FA
:1012CC0024309847F5E700BF9C130008A0130008D2
:1012DC002DE9F047DFF86CA00646DAF800009846D6
:1012EC000F469146FFF7CEFF174B1C680CB9174CF5
:1012FC001C606568DAF800001F2D05DDFFF7C3FFE1
:10130C004FF0FF30BDE8F0879EB104EB8501012260
:10131C00C1F88890D4F88831AA401343C4F88831B6
:10132C00022EC1F8088102BFD4F88C311343C4F8E3
:10133C008C316B1C0235636044F82570FFF7A3FFFA
:10134C000020DFE70C0000207C0000208000002043
:10135C00F8B500BFF8BC08BC9E467047F8B500BF96
:08136C00F8BC08BC9E46704766
:10137400000000000102030400000000000000005F
:08138400010203040607080939
:08138C0090EEFF7F010000005C
:0813940095120008D1010008C8
:04139C00AD01000897
:1013A0000024F4000100000010000000780000207C
:04000005080006A544
:00000001FF
